:100000000C94DE000C9478020C94B4020C94FB0067
:100010000C94FB000C94FB000C94FB000C94FB0074
:100020000C94FB000C94FB000C94F0020C94D10394
:100030000C94FB000C94FB000C94FB000C94FB0054
:100040000C94FB000C94FB000C94FB000C94FB0044
:100050000C94FB000C94FB000C94FB000C94970395
:100060000C94FB000C94FB0008000000BE92244995
:10007000123EABAAAA2ABECDCCCC4C3E00000080DA
:10008000BEABAAAAAA3E00000000BF000000803F4D
:100090000000000000084178D3BB4387D1133D190D
:1000A0000E3CC3BD4282AD2B3E68EC8276BED98F3A
:1000B000E1A93E4C80EFFFBE01C4FF7F3F0000007E
:1000C000000000407A10F35A00A0724E1809001088
:1000D000A5D4E80000E87648170000E40B540200BD
:1000E00000CA9A3B000000E1F505000080969800E8
:1000F000000040420F000000A08601000000102711
:1001000000000000E80300000000640000000000A0
:100110000A00000000000100000000002C76D888D2
:10012000DC674F0823DFC1DFAE59E1B1B796E5E3E5
:10013000E453C63AE651997696E8E6C28426EB89FE
:100140008C9B62ED407C6FFCEFBC9C9F40F2BAA59B
:100150006FA5F490055A2AF75C936B6CF9676DC133
:100160001BFCE0E40D47FEF520E6B500D0ED902E37
:100170000300943577050080841E080000204E0A95
:10018000000000C80C333333330F986E12831141D3
:10019000EF8D2114893BE65516CFFEE6DB18D1849E
:1001A0004B381BF77C1D901DA4BBE42420328472C5
:1001B0005E228100C9F124ECA1E53D2711241FBE78
:1001C000CFEFD8E0DEBFCDBF11E0A0E0B1E0E6ECBC
:1001D000F7E102C005900D92AC3CB107D9F722E0DF
:1001E000ACECB1E001C01D92A231B207E1F70E9470
:1001F00009040C94E10B0C9400009091C00095FF51
:10020000FCCF8093C6000895CF93DF93EC018991D2
:10021000811103C0DF91CF9108950E94FD00F7CFB7
:100220002F923F924F925F926F927F928F929F9206
:10023000AF92BF92CF92DF92EF92FF920F931F93F4
:10024000CF93DF93CDB7DEB760970FB6F894DEBFDC
:100250000FBECDBF1A0120E030E04AE754E40E940F
:1002600056092B013C0120E030E040E752E40E94B7
:1002700056096B017C010E94C809CB016CE370E058
:100280000E94A70B072E000C880B990B0E94000AF6
:100290004B015C0120E030E040E752E40E94050B96
:1002A0006D877E878F87988B9B01AC01C701B60154
:1002B0000E94E4080E94C809072E000C880B990BC5
:1002C0000E94000A6B017C01AC019B016D857E855B
:1002D0008F8598890E94E50820E030E040E752E4ED
:1002E0000E94050B9B01AC01C301B2010E94E4080E
:1002F0008E010F5F1F4F22E045E00E9458060A5F03
:100300001F4F20E042E0C701B6010E9458060D5F72
:100310001F4F20E042E0C501B4010E94580620E0D2
:1003200030E0A901C501B4010E94B00A06E010E066
:1003300018164CF48A85F10180838B85818388E6C9
:10034000828310E000E020E030E0A901C701B6019F
:100350000E94B00A18164CF48F81F10180838885C1
:1003600081838DE6828303E010E0F101E01BF10B55
:1003700089818683F101E01BF10B8A818783F1017A
:10038000E01BF10B8B818087F101E01BF10B8C816D
:100390008187F101E01BF10B8D818287F101E01B68
:1003A000F10B83E78387F101E01BF10B1486609664
:1003B0000FB6F894DEBF0FBECDBFDF91CF911F9176
:1003C0000F91FF90EF90DF90CF90BF90AF909F90F4
:1003D0008F907F906F905F904F903F902F900895F7
:1003E000AF92BF92CF92DF92EF92FF920F931F9343
:1003F000CF93DF93CDB7DEB7ADB6BEB6420F32E0D6
:10040000E32EE40EF12CEDB7FEB7EE19FF090FB69F
:10041000F894FEBF0FBEEDBF31966F014F5F8F01A5
:100420000E945806EC0CFD1CF70131971082C601A2
:100430000E9404010FB6F894BEBE0FBEADBEDF91A0
:10044000CF911F910F91FF90EF90DF90CF90BF90D1
:10045000AF900895CF92DF92EF92FF92BC0190E0AF
:1004600080E00E94FE099B01AC0160E070EC8FE728
:1004700094E40E94560920E030E040E85FE30E94E7
:10048000E40820E030E44CE156E40E94050B0E94B1
:10049000BD0A6B017C0129E537E44CEB53E30E9474
:1004A000050BA70196010E94050B23E73FE745E7EF
:1004B00059E30E94E508A70196010E94050B2BEE67
:1004C0003FEF43E95AE30E94E5089B01AC0160E07D
:1004D00070E080E89FE30E94560923E333E948E88F
:1004E00053E40E94E408FF90EF90DF90CF900895CE
:1004F0001F920F920FB60F9211242F933F938F9359
:100500009F9389B183FB882780F999B192FB992742
:1005100090F92091FE013091FF012115310561F024
:1005200022303105C9F09F918F913F912F910F900B
:100530000FBE0F901F901895992339F081E090E03D
:100540009093FF018093FE01EECF8111F7CF1092BF
:10055000FF011092FE01E7CF992319F084E090E0AB
:10056000EFCF8111F4CFFACF1F920F920FB60F92F7
:1005700011242F933F938F939F9399B193FB9927C6
:1005800090F989B182FB882780F92091FE01309192
:10059000FF012115310561F021303105C9F09F912E
:1005A0008F913F912F910F900FBE0F901F90189534
:1005B000992339F082E090E09093FF018093FE014F
:1005C000EECF8111F7CF1092FF011092FE01E7CF1D
:1005D000992319F083E090E0EFCF8111F4CFFACFA7
:1005E0001F920F920FB60F921124CF92DF92EF92CB
:1005F000FF922F933F934F935F936F937F938F93CC
:100600009F93AF93BF93CF93DF93EF93FF9380912B
:10061000100290911102892B91F5C0918600D09122
:10062000870020E030E04AEF54E460910C027091C2
:100630000D0280910E0290910F020E94050B6B013A
:100640007C01BE0190E080E00E94FE099B01AC01AC
:10065000C701B6010E94E50820E030E04AEF54E40B
:100660000E945609609308027093090280930A025F
:1006700090930B02809181008F7B80938100809109
:10068000100290911102019791F5C0918600D091CE
:10069000870020E030E04AEF54E460910C02709152
:1006A0000D0280910E0290910F020E94050B6B01CA
:1006B0007C01BE0190E080E00E94FE099B01AC013C
:1006C000C701B6010E94E50820E030E04AEF54E49B
:1006D0000E945609609304027093050280930602FB
:1006E00090930702809181008064809381002FEFB6
:1006F00086E791E0215080409040E1F700C0000083
:10070000FF91EF91DF91CF91BF91AF919F918F9129
:100710007F916F915F914F913F912F91FF90EF905B
:10072000DF90CF900F900FBE0F901F9018951F92E3
:100730000F920FB60F9211242F933F934F935F9315
:100740006F937F938F939F93AF93BF93EF93FF9399
:1007500000B605FE06C063EA71E085EE91E00E94F6
:10076000DA0B00B605FC06C067EB71E085EE91E0A0
:100770000E94DA0B6CEC71E085EE91E00E94CF0BE9
:10078000FF91EF91BF91AF919F918F917F916F9169
:100790005F914F913F912F910F900FBE0F901F903F
:1007A00018951F920F920FB60F9211242F933F931B
:1007B0004F935F936F937F938F939F93AF93BF9369
:1007C000EF93FF9320E030E040E85FE360910C029C
:1007D00070910D0280910E0290910F020E94E50827
:1007E00060930C0270930D0280930E0290930F029F
:1007F000FF91EF91BF91AF919F918F917F916F91F9
:100800005F914F913F912F910F900FBE0F901F90CE
:100810001895CF93DF93CDB7DEB7CB54D1090FB680
:10082000F894DEBF0FBECDBF5698579880B788604A
:1008300080BF569857985298539854985C9A8091D4
:1008400069008D7F80936900809169008160809349
:100850006900E89A80916900877F809369008091A0
:100860006900846080936900E99A85B5886085BDD8
:1008700084B5816084BD84B5806284BD85B58460A3
:1008800085BD85B5816085BD85B58F7785BD85B50D
:100890008F7B85BD559A259A2D9A249A2C988EE4A3
:1008A00087BD1092C50088E08093C40088E18093E2
:1008B000C1008EE08093C2008091C200806280936C
:1008C000C20080917C00806480937C0080917C00D9
:1008D0008F7780937C0080917A00816080937A008A
:1008E00080917A00826080937A0080917A0084609F
:1008F00080937A00389880917C00807F80937C0080
:1009000080917C0080937C0080917A008F7D809321
:100910007A0080917A00806880937A0080B7846042
:1009200080BF80916F00806280936F008091810012
:10093000806480938100809181008F7E809381000C
:10094000809181008068809381008091810088601F
:1009500080938100809180008D7F809380008091C2
:1009600080008E7F8093800080918100887F8093BB
:100970008100809181008260809381008FEC97E0FC
:10098000909389008093880080916F0082608093AB
:100990006F00789410E000E0FF24F39480B785FBAB
:1009A000882780F980931002109211022E9A2E98B7
:1009B0008091100290911102181619060CF014C1C2
:1009C00080910401882309F40FC1609100017091A6
:1009D0000101809102019091030120E030E04CE997
:1009E00052E40E94050B0E94C80968BD20910802CC
:1009F0003091090240910A0250910B0260910C0261
:100A000070910D0280910E0290910F020E94E408F5
:100A1000AE014F5F5F4F0E94100185E091E00E94A0
:100A2000040182E191E00E940401CE0101960E943E
:100A3000040185E291E00E9404018AE00E94FD0029
:100A400089E591E00E94040160910001709101012B
:100A5000809102019091030122E030E041E00E9488
:100A6000F0018AE00E94FD008DE591E00E94040102
:100A70006091100270911102072E000C880B990BE7
:100A80000E94000A30E020E043E00E94F0018AE08A
:100A90000E94FD008091FE019091FF01039709F0F3
:100AA000EAC0609100017091010180910201909172
:100AB00003012DEC3CEC4CE45DE30E94E5086093FF
:100AC0000001709301018093020190930301109241
:100AD000FF011092FE0189B199B1869586958695A0
:100AE00096959695892780FD04C01092FF0110927B
:100AF000FE016091000170910101809102019091CD
:100B0000030123E333E343E75FE30E94B00A1816CF
:100B100064F483E393E3A3E7BFE38093000190933E
:100B20000101A0930201B093030160910001709153
:100B3000010180910201909103012DEC3CEC4CEC01
:100B40005DE30E94510987FF0CC08DEC9CECACEC7E
:100B5000BDE38093000190930101A0930201B09343
:100B600003014C9910C02FEF8DEE92E02150804090
:100B70009040E1F700C000004C9905C0809104014D
:100B80008F258093040180917A00806480937A009D
:100B900080917A0086FDFCCFC0907800D0907900DB
:100BA0000115110509F07DC0D0920302C092020226
:100BB00086E691E00E940401C6010E942A0221E01B
:100BC00030E047E00E94F0018AE00E94FD0021E051
:100BD000022780917C00807F80937C0080917C0044
:100BE000802B80937C00DACEF8BC209108023091F3
:100BF000090240910A0250910B0260910402709127
:100C0000050280910602909107020E94E4080E946A
:100C1000C8099B0177FF04C022273327261B370B07
:100C2000B901330F880B990B0E94000AAE01465E92
:100C30005F4F0E941001609108027091090280913B
:100C40000A0290910B02AE014D5C5F4F0E941001B1
:100C500085E091E00E94040188E291E00E94040195
:100C6000CE01C3960E94040188E491E00E94040131
:100C7000CE014A96DCCE8091FE019091FF0104974F
:100C800009F029CF6091000170910101809102016A
:100C9000909103012DEC3CEC4CE45DE30E94E408F0
:100CA0000ECFD0920102C092000283E891E082CF81
:100CB000EF920F931F93CF93DF93E80134E047FD4A
:100CC00034E1042E000C550B57FF03C0519541959C
:100CD0005109E32E022F242FAE010E947606CE0189
:100CE000DF91CF911F910F91EF900895A9E0B0E0AF
:100CF000ECE7F6E00C94B3086A01F22EB02E102F48
:100D0000FBE3AF2EA01608F41BE31F5F012F27E0C3
:100D1000AE014F5F5F4F0E94D507BC018981982FBC
:100D20009970913009F43FC09BE2E1FC04C09E2D14
:100D30009170E0FC3AC05E2D5071E82FE87083FF9F
:100D400046C084E0911101C083E0EF2DE81B8F15B0
:100D500008F0E0E0D6018E2F20E2552351F19923CF
:100D600029F0D6019C93C60101966C0196012D5F76
:100D70003F4FE2FE24C08EE4D6018C9391E411969D
:100D80009C93119712968C93D9018E2F90E281112A
:100D90001BC0E20FF32FF11D10828EEF9FEF2996FB
:100DA000ECE00C94CF089DE2C6CF90E2C4CF2D9327
:100DB00081508111FCCFCE0ED11CE0E0D0CF8EE669
:100DC000D6018C9391E6DBCF9D938150E0CF482FE5
:100DD000447082FF3DC084E0911101C083E08F1513
:100DE00010F4EF2DE81BD6018E2F20E2552309F1D8
:100DF000992329F0D6019C93C60101966C019601B6
:100E00002D5F3F4FE2FE1BC089E4D6018C938EE438
:100E100011968C93119786E412968C93D9018E2F9C
:100E200090E2882309F4B5CF9D938150FACF2D939A
:100E300081508111FCCFCE0ED11CE0E0D9CF89E6E4
:100E4000D6018C938EE611968C93119786E6E4CFAB
:100E50009B0177FF02C030E020E0A1E0B0E09111FB
:100E600002C0B0E0A0E0F9013196AE0FBF1F8B2C9D
:100E7000912CBB2009F461C05401EFEFAE1ABE0AF9
:100E8000AA0DBB1DFA161B0619F014F04F2D4A1BB4
:100E9000511188C0E3FC59C07601A42FB0E2A11122
:100EA0004FC0C40ED11C992309F45BC040E0D601A9
:100EB0001196F60190836D01552309F448C0012F66
:100EC000060F9A81582F507184FF03C0913309F4A3
:100ED000015010160CF047C0093008F008E0EEE2AF
:100EE000FE2E5B01A01AB1088501919481949108AE
:100EF0002F3F320729F4D601FC92F60131966F019B
:100F00006217730794F1021713077CF5DB01A21B2C
:100F1000B30BAA24A394B12CAC0EBD1EAA0DBB1D0D
:100F200011968C9121503109D60111962815390559
:100F3000F4F0F60180836D01DBCFB12CA12CA0CFA2
:100F4000F701B1937F01A150AACF9111B0CFD60183
:100F5000942F50E302C05D9391509111FCCFC40EC9
:100F6000D11C40E0ACCF01E0BACF80E3DBCF621709
:100F7000730731F4963388F4953311F4552369F0EF
:100F8000F6018083FD01842F90E2811108C0A40F37
:100F9000B11D1C9290E080E002CF81E3F1CF9193EC
:100FA0008150F3CF911183CF8ACF283008F027E00A
:100FB0003327DA01990F311D87FD91600096610595
:100FC000710539F432602E5F3D9330E32A95E1F7E5
:100FD00008959F3F30F080387105610509F03C5F4E
:100FE0003C5F3D93913008F08068911DDF93CF9373
:100FF0001F930F93FF92EF92192F987F9695E92FE9
:1010000096959695E90FFF27E45EFE4F99273327C3
:10101000EE24FF24A701E70105900894079428F423
:10102000360FE71EF81E491F511D660F771F881FD8
:10103000991F0694A1F70590079428F4E70EF81E6F
:10104000491F561FC11D770F881F991F661F0694E1
:10105000A1F70590079428F4F80E491F561FC71FE3
:10106000D11D880F991F661F771F0694A1F7059061
:10107000079420F4490F561FC71FD81F990F661FEA
:10108000771F881F0694A9F784911095177041F077
:10109000D695C79557954795F794E7941A95C1F754
:1010A000E2ECF0E068941590159135916591959179
:1010B00005907FE27395E118F10A430B560BC90BBB
:1010C000D009C0F7E10CF11E431F561FC91FD01DE8
:1010D0007EF4703311F48A95E6CFE894015030F035
:1010E000080F0AF40027021708F4202F2395022F77
:1010F0007A3328F079E37D932A95E9F710C07D9340
:101100002A9589F6069497956795379517951794BC
:10111000E118F10A430B560BC90BD00998F023953F
:101120007E9173957A3308F070E37C932013B8F7BF
:101130007E9170617D9330F0839571E37D9370E3D0
:101140002A95E1F71124EF90FF900F911F91CF9115
:10115000DF91992787FD909508952F923F924F92A6
:101160005F926F927F928F929F92AF92BF92CF9237
:10117000DF92EF92FF920F931F93CF93DF93CDB740
:10118000DEB7CA1BDB0B0FB6F894DEBF0FBECDBFB8
:1011900009942A88398848885F846E847D848C8489
:1011A0009B84AA84B984C884DF80EE80FD800C8192
:1011B0001B81AA81B981CE0FD11D0FB6F894DEBF75
:1011C0000FBECDBFED0108955058BB27AA270E943E
:1011D000FC080C94760A0E94680A38F00E946F0A94
:1011E00020F039F49F3F19F426F40C94650A0EF4AC
:1011F000E095E7FB0C945F0AE92F0E94870A58F3F9
:10120000BA17620773078407950720F079F4A6F5EB
:101210000C94A90A0EF4E0950B2EBA2FA02D0B0109
:10122000B90190010C01CA01A0011124FF27591B2B
:1012300099F0593F50F4503E68F11A16F040A22F31
:10124000232F342F4427585FF3CF469537952795A2
:10125000A795F0405395C9F77EF41F16BA0B620BA1
:10126000730B840BBAF09150A1F0FF0FBB1F661FE8
:10127000771F881FC2F70EC0BA0F621F731F841F2B
:1012800048F4879577956795B795F7959E3F08F051
:10129000B0CF9395880F08F09927EE0F9795879513
:1012A00008950E943B0A08F481E008950E946A09AB
:1012B0000C94760A0E946F0A58F00E94680A40F067
:1012C00029F45F3F29F00C945F0A51110C94AA0A8B
:1012D0000C94650A0E94870A68F39923B1F3552399
:1012E00091F3951B550BBB27AA2762177307840739
:1012F00038F09F5F5F4F220F331F441FAA1FA9F3CF
:1013000035D00E2E3AF0E0E832D091505040E695BC
:10131000001CCAF72BD0FE2F29D0660F771F881F1D
:10132000BB1F261737074807AB07B0E809F0BB0B10
:10133000802DBF01FF2793585F4F3AF09E3F510524
:1013400078F00C945F0A0C94AA0A5F3FE4F3983E8D
:10135000D4F3869577956795B795F7959F5FC9F70D
:10136000880F911D9695879597F90895E1E0660F8E
:10137000771F881FBB1F621773078407BA0720F007
:10138000621B730B840BBA0BEE1F88F7E095089570
:101390000E94CF096894B1110C94AA0A08950E9482
:1013A0008F0A88F09F5798F0B92F9927B751B0F05E
:1013B000E1F0660F771F881F991F1AF0BA95C9F7D9
:1013C00014C0B13091F00E94A90AB1E008950C94C4
:1013D000A90A672F782F8827B85F39F0B93FCCF377
:1013E000869577956795B395D9F73EF49095809556
:1013F000709561957F4F8F4F9F4F0895E89409C076
:1014000097FB3EF490958095709561957F4F8F4F37
:101410009F4F9923A9F0F92F96E9BB279395F6954D
:10142000879577956795B795F111F8CFFAF4BB0FCB
:1014300011F460FF1BC06F5F7F4F8F4F9F4F16C02F
:10144000882311F096E911C0772321F09EE8872FB9
:10145000762F05C0662371F096E8862F70E060E075
:101460002AF09A95660F771F881FDAF7880F9695EE
:10147000879597F90895990F0008550FAA0BE0E892
:10148000FEEF16161706E807F907C0F01216130646
:10149000E407F50798F0621B730B840B950B39F486
:1014A0000A2661F0232B242B252B21F408950A26EC
:1014B00009F4A140A6958FEF811D811D089597F92C
:1014C0009F6780E870E060E008959FEF80EC0895EA
:1014D00000240A9416161706180609060895002413
:1014E0000A9412161306140605060895092E03948D
:1014F000000C11F4882352F0BB0F40F4BF2B11F401
:1015000060FF04C06F5F7F4F8F4F9F4F089557FD5F
:101510009058440F551F59F05F3F71F04795880F61
:1015200097FB991F61F09F3F79F0879508951216F8
:1015300013061406551FF2CF4695F1DF08C01616A4
:1015400017061806991FF1CF869571056105089455
:101550000895E894BB2766277727CB0197F908956C
:101560000E943B0A08F48FEF089516F00C94720B5A
:101570000C94650A68940C945F0A0E948F0AA8F381
:101580009923C1F3AEF3DF93CF931F930F93FF9291
:10159000C92FDD2788232AF02197660F771F881F20
:1015A000DAF720E030E040E85FEB9FE3883920F095
:1015B000803E38F021968F770E94E508E8E6F0E05B
:1015C00004C00E94E508E5E9F0E00E94800B8B0171
:1015D000BE01EC01FB2E6F5771097595771F880BC3
:1015E000990B0E94000A28E132E741E35FE30E9481
:1015F000180BAF2D9801AE01FF900F911F91CF9165
:10160000DF910E94FC080C94760A0E94180B0C943F
:10161000760A0E94680A38F00E946F0A20F095232B
:1016200011F00C945F0A0C94650A11240C94AA0A18
:101630000E94870A70F3959FC1F3950F50E0551FE4
:10164000629FF001729FBB27F00DB11D639FAA2717
:10165000F00DB11DAA1F649F6627B00DA11D661F66
:10166000829F2227B00DA11D621F739FB00DA11D87
:10167000621F839FA00D611D221F749F3327A00D41
:10168000611D231F849F600D211D822F762F6A2FDD
:1016900011249F5750409AF0F1F088234AF0EE0F42
:1016A000FF1FBB1F661F771F881F91505040A9F76F
:1016B0009E3F510580F00C945F0A0C94AA0A5F3F8C
:1016C000E4F3983ED4F3869577956795B795F795AB
:1016D000E7959F5FC1F7FE2B880F911D9695879523
:1016E00097F908959F3F31F0915020F487957795B1
:1016F0006795B795880F911D9695879597F90895E9
:10170000DF93CF931F930F93FF92EF92DF927B01B2
:101710008C01689406C0DA2EEF010E94180BFE01BE
:10172000E894A5912591359145915591A6F3EF0146
:101730000E94FC08FE019701A801DA9469F7DF9086
:10174000EF90FF900F911F91CF91DF91089597FB3C
:10175000072E16F4009407D077FD09D00E94BB0B2A
:1017600007FC05D03EF4909581959F4F08957095A4
:1017700061957F4F0895AA1BBB1B51E107C0AA1FAB
:10178000BB1FA617B70710F0A61BB70B881F991F22
:101790005A95A9F780959095BC01CD010895FB015C
:1017A000DC010D900020E9F7119701900D920020C7
:1017B000E1F70895FB01DC0101900D920020E1F7B3
:0617C0000895F894FFCF2C
:1017C6003333333F013E46616E20557074696D6553
:1017D6003A0046616E204F4E206475726174696FDF
:1017E6006E202D20007C740046616E204F46462CEC
:1017F60020776173206C617374207475726E6564F2
:10180600204F4E206174200020666F72206475722E
:101816006174696F6E202D20003E613A003E4F557F
:10182600545055543A003E546865726D6973746F2E
:10183600722054656D7065726174757265202843F7
:10184600293A003E506F74656E74696F6D657465F4
:10185600722054656D7065726174757265202843D7
:10186600293A0046414E205455524E4544204F4E8B
:10187600204154202D200046414E205455524E45BD
:0C18860044204F4646204154202D2000F5
:00000001FF
