:100000000C94DE000C9498010C94B4010C94FB0049
:100010000C94FB000C94FB000C94FB000C94FB0074
:100020000C94FB000C94FB000C94FB000C94FB0064
:100030000C94FB000C94FB000C94FB000C94FB0054
:100040000C94FB000C94FB000C94FB000C94FB0044
:100050000C94FB000C94FB000C94FB000C94FB0034
:100060000C94FB000C94FB0008000000BE92244995
:10007000123EABAAAA2ABECDCCCC4C3E00000080DA
:10008000BEABAAAAAA3E00000000BF000000803F4D
:100090000000000000084178D3BB4387D1133D190D
:1000A0000E3CC3BD4282AD2B3E68EC8276BED98F3A
:1000B000E1A93E4C80EFFFBE01C4FF7F3F0000007E
:1000C000000000407A10F35A00A0724E1809001088
:1000D000A5D4E80000E87648170000E40B540200BD
:1000E00000CA9A3B000000E1F505000080969800E8
:1000F000000040420F000000A08601000000102711
:1001000000000000E80300000000640000000000A0
:100110000A00000000000100000000002C76D888D2
:10012000DC674F0823DFC1DFAE59E1B1B796E5E3E5
:10013000E453C63AE651997696E8E6C28426EB89FE
:100140008C9B62ED407C6FFCEFBC9C9F40F2BAA59B
:100150006FA5F490055A2AF75C936B6CF9676DC133
:100160001BFCE0E40D47FEF520E6B500D0ED902E37
:100170000300943577050080841E080000204E0A95
:10018000000000C80C333333330F986E12831141D3
:10019000EF8D2114893BE65516CFFEE6DB18D1849E
:1001A0004B381BF77C1D901DA4BBE42420328472C5
:1001B0005E228100C9F124ECA1E53D2711241FBE78
:1001C000CFEFD8E0DEBFCDBF11E0A0E0B1E0EEE5BB
:1001D000F1E102C005900D92A438B107D9F721E0F2
:1001E000A4E8B1E001C01D92A638B207E1F70E9471
:1001F0004A020C94AD080C9400009091C00095FF49
:10020000FCCF8093C6000895CF93DF93EC018991D2
:10021000811103C0DF91CF9108950E94FD00F7CFB7
:10022000AF92BF92CF92DF92EF92FF920F931F9304
:10023000CF93DF93CDB7DEB7ADB6BEB6420F32E097
:10024000E32EE40EF12CEDB7FEB7EE19FF090FB661
:10025000F894FEBF0FBEEDBF31966F014F5F8F0167
:100260000E946503EC0CFD1CF70131971082C6015A
:100270000E9404010FB6F894BEBE0FBEADBEDF9162
:10028000CF911F910F91FF90EF90DF90CF90BF9093
:10029000AF900895CF92DF92EF92FF92BC0190E071
:1002A00080E00E9404079B01AC0160E070EC8FE7E6
:1002B00094E40E94630620E030E040E85FE30E949F
:1002C000F10520E030E44CE156E40E940B080E9466
:1002D000C3076B017C0129E537E44CEB53E30E9433
:1002E0000B08A70196010E940B0823E73FE745E7AB
:1002F00059E30E94F205A70196010E940B082BEE1C
:100300003FEF43E95AE30E94F2059B01AC0160E034
:1003100070E080E89FE30E94630623E333E948E846
:1003200053E40E94F105FF90EF90DF90CF90089585
:100330001F920F920FB60F9211248F939F938FE30A
:100340009CE90197F1F700C000004A9906C080912E
:10035000840191E08927809384019F918F910F9070
:100360000FBE0F901F9018951F920F920FB60F920D
:1003700011242F933F934F935F936F937F938F93AA
:100380009F93AF93BF93EF93FF938091850181116A
:1003900061C081E0809385018FE19EE40197F1F7D0
:1003A00000C0000089B199B182958F70969596959D
:1003B0009695892780FD5FC06091000170910101D1
:1003C00080910201909103012DEC3CEC4CE45DE343
:1003D0000E94F20560930001709301018093020175
:1003E00090930301609100017091010180910201DD
:1003F0009091030128E431EE4AE75FE30E94B607DB
:10040000181664F488E491EEAAE7BFE38093000134
:1004100090930101A0930201B09303016091000148
:1004200070910101809102019091030120E030E080
:1004300040E05FE30E945E0687FF0CC080E090E032
:10044000A0E0BFE38093000190930101A09302011B
:10045000B0930301FF91EF91BF91AF919F918F9165
:100460007F916F915F914F913F912F910F900FBEB0
:100470000F901F901895609100017091010180917B
:100480000201909103012DEC3CEC4CE45DE30E94F1
:10049000F105A0CFF8941092C50088E08093C400C5
:1004A00088E18093C1008EE08093C2008091C200F9
:1004B00080628093C20080917C00806480937C0085
:1004C00080917C008F7780937C0080917A0081609E
:1004D00080937A0080917A00826080937A00809184
:1004E0007A00846080937A00389880917C00807FC5
:1004F00080937C0080917C0080937C0080917A00C6
:100500008F7D80937A0080917A00806880937A0052
:10051000569857985498539852985A9A80916900CF
:10052000826080936900809169008E7F809369006A
:10053000E89A80916900877F8093690080916900C3
:10054000846080936900E99A85B5886085BD84B52B
:10055000816084BD84B5806284BD85B5826085BDBF
:1005600085B58F7785BD85B58F7B85BD559A259AD5
:100570002D9A249A2C988FEF87BD789410E000E094
:10058000D3E2109285016091000170910101809188
:1005900002019091030120E030E04FE753E40E9414
:1005A0000B080E94D50668BD84E091E00E9404011A
:1005B000609100017091010180910201909103010D
:1005C00022E030E041E00E9410018AE00E94FD003C
:1005D00088E091E00E9404016091840170E090E065
:1005E00080E00E94040722E030E041E00E94100118
:1005F0008AE00E94FD00C0B78CE091E00E940401F7
:10060000C5FB662760F96D9FB0011124072E000C11
:10061000880B990B0E94060721E030E043E00E941E
:1006200010018AE00E94FD0080917A00806480932E
:100630007A0080917A0086FDFCCFE0907800F090FF
:1006400079000115110569F585E191E00E94040129
:10065000B70190E080E00E94040721E030E047E02D
:100660000E9410018AE00E94FD008CE291E00E944D
:100670000401C7010E944A0121E030E047E00E94E6
:1006800010018AE00E94FD0081E0082780917C0033
:10069000807F80937C0080917C00802B80937C0005
:1006A00070CF89E491E00E940401B70190E080E0FE
:1006B0000E94040721E030E047E00E9410018AE038
:1006C0000E94FD0083E691E0D2CFEF920F931F933B
:1006D000CF93DF93E80134E047FD34E1042E000CB2
:1006E000550B57FF03C0519541955109E32E022F39
:1006F000242FAE010E948303CE01DF91CF911F9181
:100700000F91EF900895A9E0B0E0E9E8F3E00C94D0
:10071000C0056A01F22EB02E102FFBE3AF2EA016FB
:1007200008F41BE31F5F012F27E0AE014F5F5F4F0F
:100730000E94E204BC018981982F9970913009F4DC
:100740003FC09BE2E1FC04C09E2D9170E0FC3AC0EA
:100750005E2D5071E82FE87083FF46C084E0911150
:1007600001C083E0EF2DE81B8F1508F0E0E0D60113
:100770008E2F20E2552351F1992329F0D6019C9325
:10078000C60101966C0196012D5F3F4FE2FE24C029
:100790008EE4D6018C9391E411969C931197129656
:1007A0008C93D9018E2F90E281111BC0E20FF32FA1
:1007B000F11D10828EEF9FEF2996ECE00C94DC0582
:1007C0009DE2C6CF90E2C4CF2D9381508111FCCF22
:1007D000CE0ED11CE0E0D0CF8EE6D6018C9391E610
:1007E000DBCF9D938150E0CF482F447082FF3DC006
:1007F00084E0911101C083E08F1510F4EF2DE81B08
:10080000D6018E2F20E2552309F1992329F0D60134
:100810009C93C60101966C0196012D5F3F4FE2FE4D
:100820001BC089E4D6018C938EE411968C931197AA
:1008300086E412968C93D9018E2F90E2882309F4D6
:10084000B5CF9D938150FACF2D9381508111FCCF6C
:10085000CE0ED11CE0E0D9CF89E6D6018C938EE68E
:1008600011968C93119786E6E4CF9B0177FF02C027
:1008700030E020E0A1E0B0E0911102C0B0E0A0E0E3
:10088000F9013196AE0FBF1F8B2C912CBB2009F4C0
:1008900061C05401EFEFAE1ABE0AAA0DBB1DFA16D5
:1008A0001B0619F014F04F2D4A1B511188C0E3FCB0
:1008B00059C07601A42FB0E2A1114FC0C40ED11CC3
:1008C000992309F45BC040E0D6011196F6019083AC
:1008D0006D01552309F448C0012F060F9A81582F46
:1008E000507184FF03C0913309F4015010160CF0CD
:1008F00047C0093008F008E0EEE2FE2E5B01A01AC6
:10090000B10885019194819491082F3F320729F411
:10091000D601FC92F60131966F016217730794F1CC
:10092000021713077CF5DB01A21BB30BAA24A394C7
:10093000B12CAC0EBD1EAA0DBB1D11968C91215081
:100940003109D601119628153905F4F0F601808396
:100950006D01DBCFB12CA12CA0CFF701B1937F01AA
:10096000A150AACF9111B0CFD601942F50E302C06D
:100970005D9391509111FCCFC40ED11C40E0ACCFDF
:1009800001E0BACF80E3DBCF6217730731F496330F
:1009900088F4953311F4552369F0F6018083FD0145
:1009A000842F90E2811108C0A40FB11D1C9290E029
:1009B00080E002CF81E3F1CF91938150F3CF911189
:1009C00083CF8ACF283008F027E03327DA01990F48
:1009D000311D87FD916000966105710539F4326023
:1009E0002E5F3D9330E32A95E1F708959F3F30F065
:1009F00080387105610509F03C5F3C5F3D939130A3
:100A000008F08068911DDF93CF931F930F93FF929F
:100A1000EF92192F987F9695E92F96959695E90F65
:100A2000FF27E45EFE4F99273327EE24FF24A7011A
:100A3000E70105900894079428F4360FE71EF81E86
:100A4000491F511D660F771F881F991F0694A1F734
:100A50000590079428F4E70EF81E491F561FC11D84
:100A6000770F881F991F661F0694A1F705900794BA
:100A700028F4F80E491F561FC71FD11D880F991F54
:100A8000661F771F0694A1F70590079420F4490F7D
:100A9000561FC71FD81F990F661F771F881F069400
:100AA000A9F784911095177041F0D695C795579581
:100AB0004795F794E7941A95C1F7E2ECF0E0689453
:100AC0001590159135916591959105907FE27395FB
:100AD000E118F10A430B560BC90BD009C0F7E10C22
:100AE000F11E431F561FC91FD01D7EF4703311F431
:100AF0008A95E6CFE894015030F0080F0AF40027F9
:100B0000021708F4202F2395022F7A3328F079E377
:100B10007D932A95E9F710C07D932A9589F606946E
:100B200097956795379517951794E118F10A430B38
:100B3000560BC90BD00998F023957E9173957A33A3
:100B400008F070E37C932013B8F77E9170617D9379
:100B500030F0839571E37D9370E32A95E1F71124DA
:100B6000EF90FF900F911F91CF91DF91992787FD13
:100B7000909508952F923F924F925F926F927F923D
:100B80008F929F92AF92BF92CF92DF92EF92FF929D
:100B90000F931F93CF93DF93CDB7DEB7CA1BDB0B49
:100BA0000FB6F894DEBF0FBECDBF09942A883988EE
:100BB00048885F846E847D848C849B84AA84B984F5
:100BC000C884DF80EE80FD800C811B81AA81B98101
:100BD000CE0FD11D0FB6F894DEBF0FBECDBFED0115
:100BE00008955058BB27AA270E9409060C947C0739
:100BF0000E946E0738F00E94750720F039F49F3F7D
:100C000019F426F40C946B070EF4E095E7FB0C94B2
:100C10006507E92F0E948D0758F3BA17620773071B
:100C20008407950720F079F4A6F50C94AF070EF42D
:100C3000E0950B2EBA2FA02D0B01B90190010C01EC
:100C4000CA01A0011124FF27591B99F0593F50F404
:100C5000503E68F11A16F040A22F232F342F44275C
:100C6000585FF3CF469537952795A795F040539554
:100C7000C9F77EF41F16BA0B620B730B840BBAF024
:100C80009150A1F0FF0FBB1F661F771F881FC2F78F
:100C90000EC0BA0F621F731F841F48F487957795A3
:100CA0006795B795F7959E3F08F0B0CF9395880F5D
:100CB00008F09927EE0F9795879508950E944107B0
:100CC00008F481E008950E9477060C947C070E9446
:100CD000750758F00E946E0740F029F45F3F29F035
:100CE0000C94650751110C94B0070C946B070E948B
:100CF0008D0768F39923B1F3552391F3951B550B99
:100D0000BB27AA2762177307840738F09F5F5F4FDE
:100D1000220F331F441FAA1FA9F335D00E2E3AF01D
:100D2000E0E832D091505040E695001CCAF72BD035
:100D3000FE2F29D0660F771F881FBB1F2617370786
:100D40004807AB07B0E809F0BB0B802DBF01FF27B8
:100D500093585F4F3AF09E3F510578F00C94650729
:100D60000C94B0075F3FE4F3983ED4F386957795F3
:100D70006795B795F7959F5FC9F7880F911D969571
:100D8000879597F90895E1E0660F771F881FBB1FCD
:100D9000621773078407BA0720F0621B730B840B7A
:100DA000BA0BEE1F88F7E09508950E94950788F02A
:100DB0009F5798F0B92F9927B751B0F0E1F0660F1F
:100DC000771F881F991F1AF0BA95C9F714C0B13060
:100DD00091F00E94AF07B1E008950C94AF07672F20
:100DE000782F8827B85F39F0B93FCCF3869577958F
:100DF0006795B395D9F73EF4909580957095619578
:100E00007F4F8F4F9F4F0895E89409C097FB3EF4A2
:100E100090958095709561957F4F8F4F9F4F992347
:100E2000A9F0F92F96E9BB279395F69587957795C5
:100E30006795B795F111F8CFFAF4BB0F11F460FF85
:100E40001BC06F5F7F4F8F4F9F4F16C0882311F0DD
:100E500096E911C0772321F09EE8872F762F05C0F1
:100E6000662371F096E8862F70E060E02AF09A958C
:100E7000660F771F881FDAF7880F9695879597F981
:100E80000895990F0008550FAA0BE0E8FEEF16161B
:100E90001706E807F907C0F012161306E407F5076E
:100EA00098F0621B730B840B950B39F40A2661F0E2
:100EB000232B242B252B21F408950A2609F4A14085
:100EC000A6958FEF811D811D089597F99F6780E892
:100ED00070E060E008959FEF80EC089500240A948C
:100EE0001616170618060906089500240A94121605
:100EF0001306140605060895092E0394000C11F438
:100F0000882352F0BB0F40F4BF2B11F460FF04C0E4
:100F10006F5F7F4F8F4F9F4F089557FD9058440F3D
:100F2000551F59F05F3F71F04795880F97FB991F48
:100F300061F09F3F79F08795089512161306140605
:100F4000551FF2CF4695F1DF08C016161706180692
:100F5000991FF1CF86957105610508940895E8946D
:100F6000BB2766277727CB0197F908950E94410791
:100F700008F48FEF089516F00C9478080C946B0722
:100F800068940C9465070E949507A8F39923C1F310
:100F9000AEF3DF93CF931F930F93FF92C92FDD27FB
:100FA00088232AF02197660F771F881FDAF720E041
:100FB00030E040E85FEB9FE3883920F0803E38F076
:100FC00021968F770E94F205E8E6F0E004C00E94C7
:100FD000F205E5E9F0E00E9486088B01BE01EC0114
:100FE000FB2E6F5771097595771F880B990B0E941F
:100FF000060728E132E741E35FE30E941E08AF2DB8
:101000009801AE01FF900F911F91CF91DF910E9447
:1010100009060C947C070E941E080C947C070E9411
:101020006E0738F00E94750720F0952311F00C949C
:1010300065070C946B0711240C94B0070E948D0770
:1010400070F3959FC1F3950F50E0551F629FF0011B
:10105000729FBB27F00DB11D639FAA27F00DB11D34
:10106000AA1F649F6627B00DA11D661F829F2227BD
:10107000B00DA11D621F739FB00DA11D621F839F44
:10108000A00D611D221F749F3327A00D611D231F1A
:10109000849F600D211D822F762F6A2F11249F5768
:1010A00050409AF0F1F088234AF0EE0FFF1FBB1F6B
:1010B000661F771F881F91505040A9F79E3F51052A
:1010C00080F00C9465070C94B0075F3FE4F3983E02
:1010D000D4F3869577956795B795F795E7959F5FD4
:1010E000C1F7FE2B880F911D9695879597F9089566
:1010F0009F3F31F0915020F4879577956795B7958C
:10110000880F911D9695879597F90895DF93CF9352
:101110001F930F93FF92EF92DF927B018C016894F3
:1011200006C0DA2EEF010E941E08FE01E894A59188
:101130002591359145915591A6F3EF010E9409063D
:10114000FE019701A801DA9469F7DF90EF90FF9014
:0E1150000F911F91CF91DF910895F894FFCF7A
:10115E000000003F3E613A003E623A003E4F555459
:10116E005055543A003E546865726D6973746F72CF
:10117E0020416E616C6F6720494E3A003E5468659F
:10118E00726D6973746F722054656D7065726174DF
:10119E00757265202843293A003E506F74656E744F
:1011AE00696F6D6574657220416E616C6F67204961
:1011BE004E3A003E506F74656E74696F6D6574655E
:1011CE00722054656D706572617475726520284366
:0411DE00293A0000AA
:00000001FF
